{
  "contractName": "Faucet",
  "abi": [
    {
      "inputs": [],
      "stateMutability": "nonpayable",
      "type": "constructor"
    },
    {
      "inputs": [],
      "name": "numOfFunders",
      "outputs": [
        {
          "internalType": "uint256",
          "name": "",
          "type": "uint256"
        }
      ],
      "stateMutability": "view",
      "type": "function",
      "constant": true
    },
    {
      "stateMutability": "payable",
      "type": "receive",
      "payable": true
    },
    {
      "inputs": [],
      "name": "addFunds",
      "outputs": [],
      "stateMutability": "payable",
      "type": "function",
      "payable": true
    },
    {
      "inputs": [
        {
          "internalType": "uint8",
          "name": "index",
          "type": "uint8"
        }
      ],
      "name": "getFundersAtIndex",
      "outputs": [
        {
          "internalType": "address",
          "name": "",
          "type": "address"
        }
      ],
      "stateMutability": "view",
      "type": "function",
      "constant": true
    },
    {
      "inputs": [],
      "name": "getAllFunders",
      "outputs": [
        {
          "internalType": "address[]",
          "name": "",
          "type": "address[]"
        }
      ],
      "stateMutability": "view",
      "type": "function",
      "constant": true
    },
    {
      "inputs": [
        {
          "internalType": "address",
          "name": "_address",
          "type": "address"
        }
      ],
      "name": "withdrawAllFundsToAddress",
      "outputs": [],
      "stateMutability": "nonpayable",
      "type": "function"
    },
    {
      "inputs": [
        {
          "internalType": "uint256",
          "name": "amount",
          "type": "uint256"
        }
      ],
      "name": "withdraw",
      "outputs": [],
      "stateMutability": "nonpayable",
      "type": "function"
    }
  ],
  "bytecode": "0x608060405234801561001057600080fd5b50336000806101000a81548173ffffffffffffffffffffffffffffffffffffffff021916908373ffffffffffffffffffffffffffffffffffffffff160217905550610a30806100606000396000f3fe6080604052600436106100595760003560e01c80632e1a7d4d1461006d57806357452000146100965780636fbbb55d146100bf578063a26759cb146100ea578063af7f2c9b146100f4578063f388b2661461011f57610068565b366100685761006661015c565b005b600080fd5b34801561007957600080fd5b50610094600480360381019061008f91906105ea565b61027c565b005b3480156100a257600080fd5b506100bd60048036038101906100b89190610675565b610397565b005b3480156100cb57600080fd5b506100d461046f565b6040516100e19190610760565b60405180910390f35b6100f261015c565b005b34801561010057600080fd5b50610109610569565b6040516101169190610791565b60405180910390f35b34801561012b57600080fd5b50610146600480360381019061014191906107e5565b61056f565b6040516101539190610821565b60405180910390f35b6000339050600260008273ffffffffffffffffffffffffffffffffffffffff1673ffffffffffffffffffffffffffffffffffffffff16815260200190815260200160002060009054906101000a900460ff16610279576000600160008154809291906101c79061086b565b9190505590506001600260008473ffffffffffffffffffffffffffffffffffffffff1673ffffffffffffffffffffffffffffffffffffffff16815260200190815260200160002060006101000a81548160ff021916908315150217905550816003600083815260200190815260200160002060006101000a81548173ffffffffffffffffffffffffffffffffffffffff021916908373ffffffffffffffffffffffffffffffffffffffff160217905550505b50565b60008054906101000a900473ffffffffffffffffffffffffffffffffffffffff1673ffffffffffffffffffffffffffffffffffffffff163373ffffffffffffffffffffffffffffffffffffffff161461030a576040517f08c379a000000000000000000000000000000000000000000000000000000000815260040161030190610910565b60405180910390fd5b4781111561034d576040517f08c379a00000000000000000000000000000000000000000000000000000000081526004016103449061097c565b60405180910390fd5b3373ffffffffffffffffffffffffffffffffffffffff166108fc829081150290604051600060405180830381858888f19350505050158015610393573d6000803e3d6000fd5b5050565b60008054906101000a900473ffffffffffffffffffffffffffffffffffffffff1673ffffffffffffffffffffffffffffffffffffffff163373ffffffffffffffffffffffffffffffffffffffff1614610425576040517f08c379a000000000000000000000000000000000000000000000000000000000815260040161041c90610910565b60405180910390fd5b8073ffffffffffffffffffffffffffffffffffffffff166108fc479081150290604051600060405180830381858888f1935050505015801561046b573d6000803e3d6000fd5b5050565b6060600060015467ffffffffffffffff81111561048f5761048e61099c565b5b6040519080825280602002602001820160405280156104bd5781602001602082028036833780820191505090505b50905060005b600154811015610561576003600082815260200190815260200160002060009054906101000a900473ffffffffffffffffffffffffffffffffffffffff16828281518110610514576105136109cb565b5b602002602001019073ffffffffffffffffffffffffffffffffffffffff16908173ffffffffffffffffffffffffffffffffffffffff168152505080806105599061086b565b9150506104c3565b508091505090565b60015481565b6000600360008360ff16815260200190815260200160002060009054906101000a900473ffffffffffffffffffffffffffffffffffffffff169050919050565b600080fd5b6000819050919050565b6105c7816105b4565b81146105d257600080fd5b50565b6000813590506105e4816105be565b92915050565b600060208284031215610600576105ff6105af565b5b600061060e848285016105d5565b91505092915050565b600073ffffffffffffffffffffffffffffffffffffffff82169050919050565b600061064282610617565b9050919050565b61065281610637565b811461065d57600080fd5b50565b60008135905061066f81610649565b92915050565b60006020828403121561068b5761068a6105af565b5b600061069984828501610660565b91505092915050565b600081519050919050565b600082825260208201905092915050565b6000819050602082019050919050565b6106d781610637565b82525050565b60006106e983836106ce565b60208301905092915050565b6000602082019050919050565b600061070d826106a2565b61071781856106ad565b9350610722836106be565b8060005b8381101561075357815161073a88826106dd565b9750610745836106f5565b925050600181019050610726565b5085935050505092915050565b6000602082019050818103600083015261077a8184610702565b905092915050565b61078b816105b4565b82525050565b60006020820190506107a66000830184610782565b92915050565b600060ff82169050919050565b6107c2816107ac565b81146107cd57600080fd5b50565b6000813590506107df816107b9565b92915050565b6000602082840312156107fb576107fa6105af565b5b6000610809848285016107d0565b91505092915050565b61081b81610637565b82525050565b60006020820190506108366000830184610812565b92915050565b7f4e487b7100000000000000000000000000000000000000000000000000000000600052601160045260246000fd5b6000610876826105b4565b91507fffffffffffffffffffffffffffffffffffffffffffffffffffffffffffffffff82036108a8576108a761083c565b5b600182019050919050565b600082825260208201905092915050565b7f796f7520617265206e6f7420746865206f776e65720000000000000000000000600082015250565b60006108fa6015836108b3565b9150610905826108c4565b602082019050919050565b60006020820190508181036000830152610929816108ed565b9050919050565b7f4e6f7420656e6f7567682065746820696e2074686520636f6e74726163740000600082015250565b6000610966601e836108b3565b915061097182610930565b602082019050919050565b6000602082019050818103600083015261099581610959565b9050919050565b7f4e487b7100000000000000000000000000000000000000000000000000000000600052604160045260246000fd5b7f4e487b7100000000000000000000000000000000000000000000000000000000600052603260045260246000fdfea26469706673582212200d3509580427ee01a6778f01d5362788fc7753bc8605d4ae2e5b90b72e3eec8664736f6c63430008120033",
  "immutableReferences": {},
  "source": "pragma solidity >=0.8.4 <0.9.0;\r\n\r\ncontract Faucet {\r\n\r\n    address private owner;\r\n\r\n    constructor() {\r\n        owner = msg.sender;\r\n    }\r\n\r\n    uint public numOfFunders;\r\n    // one mapping will store the funders address as keys, preventing duplicates\r\n    // the other will store them as a copy of those keys, mapped by numbers\r\n    mapping(address => bool) private funders; \r\n    mapping(uint => address) private lutFunders; // look up table\r\n\r\n    // this function is called when no function name is specified in the call\r\n    // external functions can only be called by other contracts and other txs\r\n    receive() external payable { // payable tell this function will receive tokens\r\n        addFunds();\r\n    }\r\n    // adds to the funders mapping any address that sends eth to this contract  \r\n    function addFunds() public payable {\r\n        address funder = msg.sender;\r\n        // dont add address to funders if it was already added\r\n        if (!funders[funder]){\r\n            uint index = numOfFunders++;\r\n            funders[funder] = true;\r\n            lutFunders[index] = funder;\r\n        }\r\n    }\r\n\r\n    function getFundersAtIndex(uint8 index) external view returns(address){\r\n        return lutFunders[index];\r\n    }\r\n    function getAllFunders() external view returns(address[] memory) {\r\n        address[] memory _funders = new address[](numOfFunders);\r\n        for (uint256 index = 0; index < numOfFunders; index++) {\r\n            _funders[index] = lutFunders[index];\r\n        }\r\n        return _funders;\r\n\r\n    }\r\n    // get back the money\r\n    function withdrawAllFundsToAddress(address _address) external onlyAdmin() {\r\n        payable(_address).transfer(address(this).balance);\r\n    }\r\n    function withdraw(uint amount) external onlyAdmin(){\r\n        require(amount <= address(this).balance, \"Not enough eth in the contract\");\r\n        payable(msg.sender).transfer(amount);\r\n    }\r\n    modifier onlyAdmin() {\r\n        require(msg.sender == owner, \"you are not the owner\");\r\n        _;\r\n    }\r\n}",
  "sourcePath": "C:\\Users\\TrashCan\\Desktop\\angular-faucet\\ui\\contracts\\faucetContract.sol",
  "compiler": {
    "name": "solc",
    "version": "0.8.18+commit.87f61d96.Emscripten.clang"
  },
  "schemaVersion": "3.4.12",
  "updatedAt": "2023-03-17T01:01:47.170Z",
  "networkType": "ethereum",
  "devdoc": {
    "kind": "dev",
    "methods": {},
    "version": 1
  },
  "userdoc": {
    "kind": "user",
    "methods": {},
    "version": 1
  }
}